{
  "_format": "hh-sol-artifact-1",
  "contractName": "WavePortal",
  "sourceName": "contracts/WavePortal.sol",
  "abi": [
    {
      "inputs": [],
      "stateMutability": "nonpayable",
      "type": "constructor"
    },
    {
      "anonymous": false,
      "inputs": [
        {
          "components": [
            {
              "internalType": "address",
              "name": "waver",
              "type": "address"
            },
            {
              "internalType": "string",
              "name": "message",
              "type": "string"
            },
            {
              "internalType": "uint256",
              "name": "timestamp",
              "type": "uint256"
            }
          ],
          "indexed": false,
          "internalType": "struct WavePortal.Wave",
          "name": "newWave",
          "type": "tuple"
        }
      ],
      "name": "NewWave",
      "type": "event"
    },
    {
      "inputs": [],
      "name": "getTotalWaves",
      "outputs": [
        {
          "components": [
            {
              "internalType": "address",
              "name": "waver",
              "type": "address"
            },
            {
              "internalType": "string",
              "name": "message",
              "type": "string"
            },
            {
              "internalType": "uint256",
              "name": "timestamp",
              "type": "uint256"
            }
          ],
          "internalType": "struct WavePortal.Wave[]",
          "name": "",
          "type": "tuple[]"
        }
      ],
      "stateMutability": "view",
      "type": "function"
    },
    {
      "inputs": [
        {
          "internalType": "string",
          "name": "_message",
          "type": "string"
        }
      ],
      "name": "wave",
      "outputs": [],
      "stateMutability": "nonpayable",
      "type": "function"
    }
  ],
  "bytecode": "0x608060405234801561001057600080fd5b5061003c604051806060016040528060218152602001610b146021913961004160201b6102d21760201c565b6101c4565b6100dd816040516024016100559190610142565b6040516020818303038152906040527f41304fac000000000000000000000000000000000000000000000000000000007bffffffffffffffffffffffffffffffffffffffffffffffffffffffff19166020820180517bffffffffffffffffffffffffffffffffffffffffffffffffffffffff83818316178352505050506100e060201b60201c565b50565b60008151905060006a636f6e736f6c652e6c6f679050602083016000808483855afa5050505050565b600061011482610164565b61011e818561016f565b935061012e818560208601610180565b610137816101b3565b840191505092915050565b6000602082019050818103600083015261015c8184610109565b905092915050565b600081519050919050565b600082825260208201905092915050565b60005b8381101561019e578082015181840152602081019050610183565b838111156101ad576000848401525b50505050565b6000601f19601f8301169050919050565b610941806101d36000396000f3fe608060405234801561001057600080fd5b50600436106100365760003560e01c8063449d46c01461003b5780639a2cdc0814610057575b600080fd5b6100556004803603810190610050919061049f565b610075565b005b61005f610181565b60405161006c9190610699565b60405180910390f35b600060405180606001604052803373ffffffffffffffffffffffffffffffffffffffff168152602001838152602001428152509050600081908060018154018082558091505060019003906000526020600020906003020160009091909190915060008201518160000160006101000a81548173ffffffffffffffffffffffffffffffffffffffff021916908373ffffffffffffffffffffffffffffffffffffffff1602179055506020820151816001019080519060200190610139929190610394565b506040820151816002015550507fcf571dcaf9bb6b78adf9bda51508e47eb60bcc53d32ec2f1363d82062890861e8160405161017591906106dd565b60405180910390a15050565b60606000805480602002602001604051908101604052809291908181526020016000905b828210156102c957838290600052602060002090600302016040518060600160405290816000820160009054906101000a900473ffffffffffffffffffffffffffffffffffffffff1673ffffffffffffffffffffffffffffffffffffffff1673ffffffffffffffffffffffffffffffffffffffff16815260200160018201805461022e90610839565b80601f016020809104026020016040519081016040528092919081815260200182805461025a90610839565b80156102a75780601f1061027c576101008083540402835291602001916102a7565b820191906000526020600020905b81548152906001019060200180831161028a57829003601f168201915b50505050508152602001600282015481525050815260200190600101906101a5565b50505050905090565b610368816040516024016102e691906106bb565b6040516020818303038152906040527f41304fac000000000000000000000000000000000000000000000000000000007bffffffffffffffffffffffffffffffffffffffffffffffffffffffff19166020820180517bffffffffffffffffffffffffffffffffffffffffffffffffffffffff838183161783525050505061036b565b50565b60008151905060006a636f6e736f6c652e6c6f679050602083016000808483855afa5050505050565b8280546103a090610839565b90600052602060002090601f0160209004810192826103c25760008555610409565b82601f106103db57805160ff1916838001178555610409565b82800160010185558215610409579182015b828111156104085782518255916020019190600101906103ed565b5b509050610416919061041a565b5090565b5b8082111561043357600081600090555060010161041b565b5090565b600061044a61044584610724565b6106ff565b90508281526020810184848401111561046257600080fd5b61046d8482856107f7565b509392505050565b600082601f83011261048657600080fd5b8135610496848260208601610437565b91505092915050565b6000602082840312156104b157600080fd5b600082013567ffffffffffffffff8111156104cb57600080fd5b6104d784828501610475565b91505092915050565b60006104ec83836105ea565b905092915050565b6104fd816107bb565b82525050565b600061050e82610765565b6105188185610788565b93508360208202850161052a85610755565b8060005b85811015610566578484038952815161054785826104e0565b94506105528361077b565b925060208a0199505060018101905061052e565b50829750879550505050505092915050565b600061058382610770565b61058d8185610799565b935061059d818560208601610806565b6105a6816108fa565b840191505092915050565b60006105bc82610770565b6105c681856107aa565b93506105d6818560208601610806565b6105df816108fa565b840191505092915050565b600060608301600083015161060260008601826104f4565b506020830151848203602086015261061a8282610578565b915050604083015161062f604086018261068a565b508091505092915050565b600060608301600083015161065260008601826104f4565b506020830151848203602086015261066a8282610578565b915050604083015161067f604086018261068a565b508091505092915050565b610693816107ed565b82525050565b600060208201905081810360008301526106b38184610503565b905092915050565b600060208201905081810360008301526106d581846105b1565b905092915050565b600060208201905081810360008301526106f7818461063a565b905092915050565b600061070961071a565b9050610715828261086b565b919050565b6000604051905090565b600067ffffffffffffffff82111561073f5761073e6108cb565b5b610748826108fa565b9050602081019050919050565b6000819050602082019050919050565b600081519050919050565b600081519050919050565b6000602082019050919050565b600082825260208201905092915050565b600082825260208201905092915050565b600082825260208201905092915050565b60006107c6826107cd565b9050919050565b600073ffffffffffffffffffffffffffffffffffffffff82169050919050565b6000819050919050565b82818337600083830152505050565b60005b83811015610824578082015181840152602081019050610809565b83811115610833576000848401525b50505050565b6000600282049050600182168061085157607f821691505b602082108114156108655761086461089c565b5b50919050565b610874826108fa565b810181811067ffffffffffffffff82111715610893576108926108cb565b5b80604052505050565b7f4e487b7100000000000000000000000000000000000000000000000000000000600052602260045260246000fd5b7f4e487b7100000000000000000000000000000000000000000000000000000000600052604160045260246000fd5b6000601f19601f830116905091905056fea264697066735822122051db245cf9320aee65f29a7298bba84566c1d0c1356f8c0da9d96eac0d5e986064736f6c6343000804003368657920616d20736d61727420616e6420696d206120636f6e7472616374203a70",
  "linkReferences": {},
  "deployedLinkReferences": {}
}